:020000001C29B9
:10000600831203132230FC00F801F901FA01FB0107
:10001600FC03031939280310FB0CFA0CF90CF80C35
:10002600F30CF20CF10CF00C031C0B28FC03031967
:100036002B287408F80775080318750FF907760852
:100046000318760FFA0777080318770FFB070F28B0
:100056007408F80775080318750FF907760803186A
:0E006600760FFA0777080318770FFB070800DC
:10007400D03083120313AC000730AD00AE01AF01E2
:10008400D030F0000730F1000030F2000030F3000F
:100094002A08F4002B08F500F601F7010320700884
:1000A400AC007108AD007208AE007308AF000030F8
:1000B4007302031D672800307202031D6728023093
:1000C4007102031D6728B230700203186A28A92838
:1000D400B230F0000230F100F201F3017008AC021A
:1000E4007108031C710FAD027208031C720FAE027B
:1000F4007308031C730FAF020530F0007008031976
:100104008A28AF0CAE0CAD0CAC0CAF13FF3E8128AB
:100114002C08F0002D08F1002E08F2002F08F3003F
:100124000130AC02031CAD02031CAE02031CAF027F
:1001340070087104720473040319A92800000000F4
:100144000000000000000000000000008A280800F1
:0E0154008312031323088A0022088200080089
:10016200023083120313FC004930FD00FD0BB72857
:0A017200FC0BB72800000000080095
:10017C0083120313A9012508F1000130F000710866
:10018C000319CC28F00D7010FF3EC6287008A8008B
:10019C002408840070080005F10071080130031D6B
:1001AC000030F0002708F0060319F4282608003C5C
:1001BC000318E428B120B120A603DC28240884000D
:1001CC0028080005F10071080130031D0030F00013
:1001DC002708F0060319F428FF30A9002908F000BD
:0201EC00080009
:1001EE00831203132408AA002508AB003A20060840
:1001FE00F000F00D70107008860080300602031CAF
:10020E000F292408AA002508AB003A2001308600E9
:02021E000800D6
:10022000AA208A110A128000840AA20A0319A30ACA
:08023000F003031D1029080072
:1002380083120313A001A101073083169C00063026
:100248009F00860188170130831286000830A400B9
:100258000730A5000230A600A701BE2070080319C8
:1002680047290830A4000730A5000230A600A701DE
:10027800BE20700803194729A00A0319A10A2130D2
:10028800FD00FD0B45295D292030A4000330A500A1
:10029800F72076292C30A4000130A500F720762914
:1002A8006430A4000030A500F7207629A001A10140
:1002B800762900302106031D632901302006031921
:1002C800482900302106031D6B2902302006031936
:1002D8004E2900302106031D732903302006031917
:0802E80054295A292A2977291B
:02400E004A2F37
:00000001FF
