:02000000D62800
:10000600831203132230FC00F801F901FA01FB0107
:10001600FC03031939280310FB0CFA0CF90CF80C35
:10002600F30CF20CF10CF00C031C0B28FC03031967
:100036002B287408F80775080318750FF907760852
:100046000318760FFA0777080318770FFB070F28B0
:100056007408F80775080318750FF907760803186A
:0E006600760FFA0777080318770FFB070800DC
:10007400D03083120313A8000730A900AA01AB01F2
:10008400D030F0000730F1000030F2000030F3000F
:100094002608F4002708F500F601F701032070088C
:1000A400A8007108A9007208AA007308AB00003008
:1000B4007302031D672800307202031D6728023093
:1000C4007102031D6728B230700203186A28A92838
:1000D400B230F0000230F100F201F3017008A8021E
:1000E4007108031C710FA9027208031C720FAA0283
:1000F4007308031C730FAB020530F000700803197A
:100104008A28AB0CAA0CA90CA80CAB13FF3E8128BF
:100114002808F0002908F1002A08F2002B08F3004F
:100124000130A802031CA902031CAA02031CAB028F
:1001340070087104720473040319A92800000000F4
:100144000000000000000000000000008A280800F1
:0E0154008312031323088A0022088200080089
:10016200831203132408A6002508A7003A200608D4
:10017200F000F00D70107008860080300602031C3B
:10018200C9282408A6002508A7003A2001308600C5
:02019200080063
:10019400AA208A110A128000840AA20A0319A30A57
:0801A400F003031DCA28080046
:1001AC00013083120313A000A101073083169C00B9
:1001BC0006309F0086018817013083128600881B49
:1001CC00F4280330FC009730FD00FD0BEB28FC0BF2
:1001DC00EB2800000000A00A0319A10A0C295830D2
:1001EC00A4000230A500B12025292C30A400013038
:1001FC00A500B12025296430A4000030A500B12051
:10020C0025290130A0000030A1002529003021064D
:10021C00031D1229013020060319F5280030210690
:10022C00031D1A29023020060319FB280030210671
:10023C00031D222903302006031901290729E5286B
:02024C00262961
:02400E004A2F37
:00000001FF
